{
  "address": "0x1D60597af055A11B35008D6107aE6405CF4E949B",
  "abi": [
    {
      "inputs": [
        {
          "internalType": "address",
          "name": "exampleExternalContractAddress",
          "type": "address"
        }
      ],
      "stateMutability": "nonpayable",
      "type": "constructor"
    },
    {
      "anonymous": false,
      "inputs": [
        {
          "indexed": false,
          "internalType": "uint256",
          "name": "contractBalance",
          "type": "uint256"
        }
      ],
      "name": "Executed",
      "type": "event"
    },
    {
      "anonymous": false,
      "inputs": [
        {
          "indexed": true,
          "internalType": "address",
          "name": "staker",
          "type": "address"
        },
        {
          "indexed": false,
          "internalType": "uint256",
          "name": "amount",
          "type": "uint256"
        }
      ],
      "name": "Stake",
      "type": "event"
    },
    {
      "anonymous": false,
      "inputs": [
        {
          "indexed": true,
          "internalType": "address",
          "name": "staker",
          "type": "address"
        },
        {
          "indexed": false,
          "internalType": "uint256",
          "name": "amount",
          "type": "uint256"
        }
      ],
      "name": "Withdraw",
      "type": "event"
    },
    {
      "inputs": [
        {
          "internalType": "address",
          "name": "",
          "type": "address"
        }
      ],
      "name": "balances",
      "outputs": [
        {
          "internalType": "uint256",
          "name": "",
          "type": "uint256"
        }
      ],
      "stateMutability": "view",
      "type": "function"
    },
    {
      "inputs": [],
      "name": "completed",
      "outputs": [
        {
          "internalType": "bool",
          "name": "",
          "type": "bool"
        }
      ],
      "stateMutability": "view",
      "type": "function"
    },
    {
      "inputs": [],
      "name": "deadline",
      "outputs": [
        {
          "internalType": "uint256",
          "name": "",
          "type": "uint256"
        }
      ],
      "stateMutability": "view",
      "type": "function"
    },
    {
      "inputs": [],
      "name": "exampleExternalContract",
      "outputs": [
        {
          "internalType": "contract ExampleExternalContract",
          "name": "",
          "type": "address"
        }
      ],
      "stateMutability": "view",
      "type": "function"
    },
    {
      "inputs": [],
      "name": "execute",
      "outputs": [],
      "stateMutability": "nonpayable",
      "type": "function"
    },
    {
      "inputs": [],
      "name": "stake",
      "outputs": [],
      "stateMutability": "payable",
      "type": "function"
    },
    {
      "inputs": [],
      "name": "threshold",
      "outputs": [
        {
          "internalType": "uint256",
          "name": "",
          "type": "uint256"
        }
      ],
      "stateMutability": "view",
      "type": "function"
    },
    {
      "inputs": [],
      "name": "timeLeft",
      "outputs": [
        {
          "internalType": "uint256",
          "name": "",
          "type": "uint256"
        }
      ],
      "stateMutability": "view",
      "type": "function"
    },
    {
      "inputs": [],
      "name": "withdraw",
      "outputs": [],
      "stateMutability": "nonpayable",
      "type": "function"
    },
    {
      "stateMutability": "payable",
      "type": "receive"
    }
  ],
  "transactionHash": "0x2744b6e6ed8b75421e88d2f09bedf682d420f01b7de642f45c42204e55e7c875",
  "args": [
    "0x7C8aB7d1C4B3d8aC1c67b565536c533c848EE04d"
  ],
  "numDeployments": 1,
  "solcInputHash": "4523ce1073ac9d9aaef8e4591761fcbb",
  "bytecode": "0x60a06040526002805460ff1916905534801561001a57600080fd5b506040516108be3803806108be8339810160408190526100399161006a565b600080546001600160a01b0319166001600160a01b038316179055610061426203f48061009a565b608052506100c1565b60006020828403121561007c57600080fd5b81516001600160a01b038116811461009357600080fd5b9392505050565b808201808211156100bb57634e487b7160e01b600052601160045260246000fd5b92915050565b6080516107b961010560003960008181609101528181610175015281816102410152818161035901528181610385015281816103b6015261057f01526107b96000f3fe60806040526004361061008a5760003560e01c80633ccfd60b116100595780633ccfd60b1461019757806342cde4e8146101ac57806361461954146101c85780639d9a7fe9146101dd5780639f75f2271461020757600080fd5b80631300a6d11461010e57806327e235e31461013657806329dcb0cf146101635780633a4b66f1146100ff57600080fd5b36610109577f000000000000000000000000000000000000000000000000000000000000000042106100ff5760405162461bcd60e51b81526020600482015260196024820152785374616b696e6720706572696f642068617320656e6465642160381b60448201526064015b60405180910390fd5b61010761023f565b005b600080fd5b34801561011a57600080fd5b50610123610355565b6040519081526020015b60405180910390f35b34801561014257600080fd5b506101236101513660046106d0565b60016020526000908152604090205481565b34801561016f57600080fd5b506101237f000000000000000000000000000000000000000000000000000000000000000081565b3480156101a357600080fd5b506101076103b4565b3480156101b857600080fd5b50610123670de0b6b3a764000081565b3480156101d457600080fd5b5061010761057d565b3480156101e957600080fd5b506002546101f79060ff1681565b604051901515815260200161012d565b34801561021357600080fd5b50600054610227906001600160a01b031681565b6040516001600160a01b03909116815260200161012d565b7f000000000000000000000000000000000000000000000000000000000000000042106102aa5760405162461bcd60e51b81526020600482015260196024820152785374616b696e6720706572696f642068617320656e6465642160381b60448201526064016100f6565b600034116102fa5760405162461bcd60e51b815260206004820152601b60248201527f596f75206e65656420746f207374616b6520736f6d652045544821000000000060448201526064016100f6565b3360009081526001602052604081208054349290610319908490610716565b909155505060405134815233907febedb8b3c678666e7f36970bc8f57abf6d8fa2e828c0da91ea5b75bf68ed101a9060200160405180910390a2565b60007f00000000000000000000000000000000000000000000000000000000000000004210156103ae576103a9427f000000000000000000000000000000000000000000000000000000000000000061072f565b905090565b50600090565b7f00000000000000000000000000000000000000000000000000000000000000004210156103f45760405162461bcd60e51b81526004016100f690610742565b670de0b6b3a7640000471061044b5760405162461bcd60e51b815260206004820152601760248201527f5468726573686f6c6420686173206265656e206d65742100000000000000000060448201526064016100f6565b33600090815260016020526040902054806104a85760405162461bcd60e51b815260206004820152601760248201527f4e6f2062616c616e636520746f2077697468647261772100000000000000000060448201526064016100f6565b336000818152600160205260408082208290555190919083908381818185875af1925050503d80600081146104f9576040519150601f19603f3d011682016040523d82523d6000602084013e6104fe565b606091505b50509050806105445760405162461bcd60e51b81526020600482015260126024820152715769746864726177616c206661696c65642160701b60448201526064016100f6565b60405182815233907f884edad9ce6fa2440d8a54cc123490eb96d2768479d49ff9c7366125a94243649060200160405180910390a25050565b7f00000000000000000000000000000000000000000000000000000000000000004210156105bd5760405162461bcd60e51b81526004016100f690610742565b60025460ff16156106105760405162461bcd60e51b815260206004820152601a60248201527f436f6e747261637420616c72656164792065786563757465642100000000000060448201526064016100f6565b670de0b6b3a764000047106106ce5760008054906101000a90046001600160a01b03166001600160a01b031663522e1177476040518263ffffffff1660e01b81526004016000604051808303818588803b15801561066d57600080fd5b505af1158015610681573d6000803e3d6000fd5b50506002805460ff1916600117905550506040517fbcf6a68a2f901be4a23a41b53acd7697893a7e34def4e28acba584da75283b6791506106c59047815260200190565b60405180910390a15b565b6000602082840312156106e257600080fd5b81356001600160a01b03811681146106f957600080fd5b9392505050565b634e487b7160e01b600052601160045260246000fd5b8082018082111561072957610729610700565b92915050565b8181038181111561072957610729610700565b60208082526021908201527f446561646c696e6520686173206e6f74206265656e20726561636865642079656040820152601d60fa1b60608201526080019056fea2646970667358221220a90c133b21f7ce1f8b2c11ae1834acbcf3c9f7b523c0248eba8d844dc0121e2564736f6c63430008140033",
  "devdoc": {
    "kind": "dev",
    "methods": {},
    "version": 1
  },
  "userdoc": {
    "kind": "user",
    "methods": {},
    "version": 1
  },
  "storageLayout": {
    "storage": [
      {
        "astId": 19,
        "contract": "contracts/Staker.sol:Staker",
        "label": "exampleExternalContract",
        "offset": 0,
        "slot": "0",
        "type": "t_contract(ExampleExternalContract)12"
      },
      {
        "astId": 23,
        "contract": "contracts/Staker.sol:Staker",
        "label": "balances",
        "offset": 0,
        "slot": "1",
        "type": "t_mapping(t_address,t_uint256)"
      },
      {
        "astId": 31,
        "contract": "contracts/Staker.sol:Staker",
        "label": "completed",
        "offset": 0,
        "slot": "2",
        "type": "t_bool"
      }
    ],
    "types": {
      "t_address": {
        "encoding": "inplace",
        "label": "address",
        "numberOfBytes": "20"
      },
      "t_bool": {
        "encoding": "inplace",
        "label": "bool",
        "numberOfBytes": "1"
      },
      "t_contract(ExampleExternalContract)12": {
        "encoding": "inplace",
        "label": "contract ExampleExternalContract",
        "numberOfBytes": "20"
      },
      "t_mapping(t_address,t_uint256)": {
        "encoding": "mapping",
        "key": "t_address",
        "label": "mapping(address => uint256)",
        "numberOfBytes": "32",
        "value": "t_uint256"
      },
      "t_uint256": {
        "encoding": "inplace",
        "label": "uint256",
        "numberOfBytes": "32"
      }
    }
  }
}